{
  "_format": "hh-sol-artifact-1",
  "contractName": "TradeShaderToken",
  "sourceName": "contracts/TradeShaderToken.sol",
  "abi": [
    {
      "inputs": [
        {
          "internalType": "address",
          "name": "_mstAddress",
          "type": "address"
        }
      ],
      "stateMutability": "nonpayable",
      "type": "constructor"
    },
    {
      "inputs": [
        {
          "internalType": "uint256",
          "name": "tokenId",
          "type": "uint256"
        }
      ],
      "name": "isOwner",
      "outputs": [
        {
          "internalType": "bool",
          "name": "",
          "type": "bool"
        }
      ],
      "stateMutability": "view",
      "type": "function"
    },
    {
      "inputs": [],
      "name": "mstAddress",
      "outputs": [
        {
          "internalType": "contract MintShaderToken",
          "name": "",
          "type": "address"
        }
      ],
      "stateMutability": "view",
      "type": "function"
    },
    {
      "inputs": [
        {
          "internalType": "uint256",
          "name": "_tokenId",
          "type": "uint256"
        }
      ],
      "name": "purchaseToken",
      "outputs": [],
      "stateMutability": "payable",
      "type": "function"
    },
    {
      "inputs": [
        {
          "internalType": "uint256",
          "name": "_tokenId",
          "type": "uint256"
        },
        {
          "internalType": "uint256",
          "name": "_price",
          "type": "uint256"
        }
      ],
      "name": "saleToken",
      "outputs": [],
      "stateMutability": "nonpayable",
      "type": "function"
    }
  ],
  "bytecode": "0x608060405234801561001057600080fd5b5060405161077c38038061077c83398101604081905261002f91610054565b600080546001600160a01b0319166001600160a01b0392909216919091179055610082565b600060208284031215610065578081fd5b81516001600160a01b038116811461007b578182fd5b9392505050565b6106eb806100916000396000f3fe60806040526004361061003f5760003560e01c806339c7639c14610044578063c2db2c4214610079578063d6f09f9e1461008e578063dd003577146100ae575b600080fd5b34801561005057600080fd5b5061006461005f366004610664565b6100e6565b60405190151581526020015b60405180910390f35b61008c610087366004610664565b61016f565b005b34801561009a57600080fd5b5061008c6100a9366004610694565b6103e1565b3480156100ba57600080fd5b506000546100ce906001600160a01b031681565b6040516001600160a01b039091168152602001610070565b60008054604051627eeac760e11b8152336004820152602481018490526001600160a01b039091169062fdd58e9060440160206040518083038186803b15801561012f57600080fd5b505afa158015610143573d6000803e3d6000fd5b505050506040513d601f19601f82011682018060405250810190610167919061067c565b151592915050565b610178816100e6565b156101bf5760405162461bcd60e51b8152602060048201526012602482015271165bdd48185b1c9958591e481bdddb881a5d60721b60448201526064015b60405180910390fd5b600081815260016020526040902054341461021c5760405162461bcd60e51b815260206004820152601e60248201527f4e6f7420656e6f756768206d6f6e6579206f72204f766572207061796564000060448201526064016101b6565b6000546040516331a9108f60e11b8152600481018390526001600160a01b0390911690636352211e9060240160206040518083038186803b15801561026057600080fd5b505afa158015610274573d6000803e3d6000fd5b505050506040513d601f19601f820116820180604052508101906102989190610616565b6001600160a01b03166108fc349081150290604051600060405180830381858888f193505050501580156102d0573d6000803e3d6000fd5b506000546040516331a9108f60e11b8152600481018390526001600160a01b039091169063f242432a908290636352211e9060240160206040518083038186803b15801561031d57600080fd5b505afa158015610331573d6000803e3d6000fd5b505050506040513d601f19601f820116820180604052508101906103559190610616565b6040516001600160e01b031960e084901b1681526001600160a01b039091166004820152336024820152604481018490526001606482015260a06084820152600060a482015260c401600060405180830381600087803b1580156103b857600080fd5b505af11580156103cc573d6000803e3d6000fd5b50505060009182525060016020526040812055565b6103ea826100e6565b15156001146104305760405162461bcd60e51b81526020600482015260126024820152712737ba1037bbb732b91037b3102a37b5b2b760711b60448201526064016101b6565b6000828152600160205260409020541561047e5760405162461bcd60e51b815260206004820152600f60248201526e416c7265616479206f6e2053616c6560881b60448201526064016101b6565b600081116104c75760405162461bcd60e51b8152602060048201526016602482015275050726963652073686f756c64206265206f76657220360541b60448201526064016101b6565b6000546040516331a9108f60e11b8152600481018490526001600160a01b039091169063e985e9c5908290636352211e9060240160206040518083038186803b15801561051357600080fd5b505afa158015610527573d6000803e3d6000fd5b505050506040513d601f19601f8201168201806040525081019061054b9190610616565b6040516001600160e01b031960e084901b1681526001600160a01b03909116600482015230602482015260440160206040518083038186803b15801561059057600080fd5b505afa1580156105a4573d6000803e3d6000fd5b505050506040513d601f19601f820116820180604052508101906105c89190610644565b6106045760405162461bcd60e51b815260206004820152600d60248201526c4e6f7420617070726f7665642160981b60448201526064016101b6565b60009182526001602052604090912055565b600060208284031215610627578081fd5b81516001600160a01b038116811461063d578182fd5b9392505050565b600060208284031215610655578081fd5b8151801515811461063d578182fd5b600060208284031215610675578081fd5b5035919050565b60006020828403121561068d578081fd5b5051919050565b600080604083850312156106a6578081fd5b5050803592602090910135915056fea2646970667358221220f60cfcba140875b4c07d53b70c344cf5e0bd843d623ebf648f49c02588e5466b64736f6c63430008020033",
  "linkReferences": {},
  "deployedLinkReferences": {}
}