{
  "_format": "hh-sol-artifact-1",
  "contractName": "MintShaderToken",
  "sourceName": "contracts/MintShaderToken.sol",
  "abi": [
    {
      "inputs": [],
      "stateMutability": "nonpayable",
      "type": "constructor"
    },
    {
      "anonymous": false,
      "inputs": [
        {
          "indexed": true,
          "internalType": "address",
          "name": "account",
          "type": "address"
        },
        {
          "indexed": true,
          "internalType": "address",
          "name": "operator",
          "type": "address"
        },
        {
          "indexed": false,
          "internalType": "bool",
          "name": "approved",
          "type": "bool"
        }
      ],
      "name": "ApprovalForAll",
      "type": "event"
    },
    {
      "anonymous": false,
      "inputs": [
        {
          "indexed": true,
          "internalType": "address",
          "name": "previousOwner",
          "type": "address"
        },
        {
          "indexed": true,
          "internalType": "address",
          "name": "newOwner",
          "type": "address"
        }
      ],
      "name": "OwnershipTransferred",
      "type": "event"
    },
    {
      "anonymous": false,
      "inputs": [
        {
          "indexed": true,
          "internalType": "address",
          "name": "operator",
          "type": "address"
        },
        {
          "indexed": true,
          "internalType": "address",
          "name": "from",
          "type": "address"
        },
        {
          "indexed": true,
          "internalType": "address",
          "name": "to",
          "type": "address"
        },
        {
          "indexed": false,
          "internalType": "uint256[]",
          "name": "ids",
          "type": "uint256[]"
        },
        {
          "indexed": false,
          "internalType": "uint256[]",
          "name": "values",
          "type": "uint256[]"
        }
      ],
      "name": "TransferBatch",
      "type": "event"
    },
    {
      "anonymous": false,
      "inputs": [
        {
          "indexed": true,
          "internalType": "address",
          "name": "operator",
          "type": "address"
        },
        {
          "indexed": true,
          "internalType": "address",
          "name": "from",
          "type": "address"
        },
        {
          "indexed": true,
          "internalType": "address",
          "name": "to",
          "type": "address"
        },
        {
          "indexed": false,
          "internalType": "uint256",
          "name": "id",
          "type": "uint256"
        },
        {
          "indexed": false,
          "internalType": "uint256",
          "name": "value",
          "type": "uint256"
        }
      ],
      "name": "TransferSingle",
      "type": "event"
    },
    {
      "anonymous": false,
      "inputs": [
        {
          "indexed": false,
          "internalType": "string",
          "name": "value",
          "type": "string"
        },
        {
          "indexed": true,
          "internalType": "uint256",
          "name": "id",
          "type": "uint256"
        }
      ],
      "name": "URI",
      "type": "event"
    },
    {
      "inputs": [
        {
          "internalType": "address",
          "name": "account",
          "type": "address"
        },
        {
          "internalType": "uint256",
          "name": "id",
          "type": "uint256"
        }
      ],
      "name": "balanceOf",
      "outputs": [
        {
          "internalType": "uint256",
          "name": "",
          "type": "uint256"
        }
      ],
      "stateMutability": "view",
      "type": "function"
    },
    {
      "inputs": [
        {
          "internalType": "address[]",
          "name": "accounts",
          "type": "address[]"
        },
        {
          "internalType": "uint256[]",
          "name": "ids",
          "type": "uint256[]"
        }
      ],
      "name": "balanceOfBatch",
      "outputs": [
        {
          "internalType": "uint256[]",
          "name": "",
          "type": "uint256[]"
        }
      ],
      "stateMutability": "view",
      "type": "function"
    },
    {
      "inputs": [
        {
          "internalType": "uint256",
          "name": "_tokenId",
          "type": "uint256"
        }
      ],
      "name": "exist",
      "outputs": [
        {
          "internalType": "uint256",
          "name": "",
          "type": "uint256"
        }
      ],
      "stateMutability": "view",
      "type": "function"
    },
    {
      "inputs": [
        {
          "internalType": "address",
          "name": "account",
          "type": "address"
        },
        {
          "internalType": "address",
          "name": "operator",
          "type": "address"
        }
      ],
      "name": "isApprovedForAll",
      "outputs": [
        {
          "internalType": "bool",
          "name": "",
          "type": "bool"
        }
      ],
      "stateMutability": "view",
      "type": "function"
    },
    {
      "inputs": [
        {
          "internalType": "uint256",
          "name": "_tokenId",
          "type": "uint256"
        }
      ],
      "name": "mintShaderToken",
      "outputs": [],
      "stateMutability": "nonpayable",
      "type": "function"
    },
    {
      "inputs": [],
      "name": "owner",
      "outputs": [
        {
          "internalType": "address",
          "name": "",
          "type": "address"
        }
      ],
      "stateMutability": "view",
      "type": "function"
    },
    {
      "inputs": [
        {
          "internalType": "uint256",
          "name": "_tokenId",
          "type": "uint256"
        }
      ],
      "name": "ownerOf",
      "outputs": [
        {
          "internalType": "address",
          "name": "",
          "type": "address"
        }
      ],
      "stateMutability": "view",
      "type": "function"
    },
    {
      "inputs": [],
      "name": "renounceOwnership",
      "outputs": [],
      "stateMutability": "nonpayable",
      "type": "function"
    },
    {
      "inputs": [
        {
          "internalType": "address",
          "name": "from",
          "type": "address"
        },
        {
          "internalType": "address",
          "name": "to",
          "type": "address"
        },
        {
          "internalType": "uint256[]",
          "name": "ids",
          "type": "uint256[]"
        },
        {
          "internalType": "uint256[]",
          "name": "amounts",
          "type": "uint256[]"
        },
        {
          "internalType": "bytes",
          "name": "data",
          "type": "bytes"
        }
      ],
      "name": "safeBatchTransferFrom",
      "outputs": [],
      "stateMutability": "nonpayable",
      "type": "function"
    },
    {
      "inputs": [
        {
          "internalType": "address",
          "name": "from",
          "type": "address"
        },
        {
          "internalType": "address",
          "name": "to",
          "type": "address"
        },
        {
          "internalType": "uint256",
          "name": "id",
          "type": "uint256"
        },
        {
          "internalType": "uint256",
          "name": "amount",
          "type": "uint256"
        },
        {
          "internalType": "bytes",
          "name": "data",
          "type": "bytes"
        }
      ],
      "name": "safeTransferFrom",
      "outputs": [],
      "stateMutability": "nonpayable",
      "type": "function"
    },
    {
      "inputs": [
        {
          "internalType": "address",
          "name": "operator",
          "type": "address"
        },
        {
          "internalType": "bool",
          "name": "approved",
          "type": "bool"
        }
      ],
      "name": "setApprovalForAll",
      "outputs": [],
      "stateMutability": "nonpayable",
      "type": "function"
    },
    {
      "inputs": [
        {
          "internalType": "uint256",
          "name": "_tokenId",
          "type": "uint256"
        },
        {
          "internalType": "string",
          "name": "uri",
          "type": "string"
        }
      ],
      "name": "setTokenUri",
      "outputs": [],
      "stateMutability": "nonpayable",
      "type": "function"
    },
    {
      "inputs": [
        {
          "internalType": "bytes4",
          "name": "interfaceId",
          "type": "bytes4"
        }
      ],
      "name": "supportsInterface",
      "outputs": [
        {
          "internalType": "bool",
          "name": "",
          "type": "bool"
        }
      ],
      "stateMutability": "view",
      "type": "function"
    },
    {
      "inputs": [
        {
          "internalType": "uint256",
          "name": "",
          "type": "uint256"
        }
      ],
      "name": "tokenAddress",
      "outputs": [
        {
          "internalType": "address",
          "name": "",
          "type": "address"
        }
      ],
      "stateMutability": "view",
      "type": "function"
    },
    {
      "inputs": [
        {
          "internalType": "uint256",
          "name": "",
          "type": "uint256"
        }
      ],
      "name": "tokenExist",
      "outputs": [
        {
          "internalType": "uint256",
          "name": "",
          "type": "uint256"
        }
      ],
      "stateMutability": "view",
      "type": "function"
    },
    {
      "inputs": [
        {
          "internalType": "address",
          "name": "newOwner",
          "type": "address"
        }
      ],
      "name": "transferOwnership",
      "outputs": [],
      "stateMutability": "nonpayable",
      "type": "function"
    },
    {
      "inputs": [
        {
          "internalType": "uint256",
          "name": "_tokenId",
          "type": "uint256"
        }
      ],
      "name": "uri",
      "outputs": [
        {
          "internalType": "string",
          "name": "",
          "type": "string"
        }
      ],
      "stateMutability": "view",
      "type": "function"
    }
  ],
  "bytecode": "0x60806040523480156200001157600080fd5b506040805180820190915260088152676d6574615552492f60c01b60208201526200003c816200004e565b50620000483362000067565b6200019c565b805162000063906002906020840190620000b9565b5050565b600380546001600160a01b038381166001600160a01b0319831681179093556040519116919082907f8be0079c531659141344cd1fd0a4f28419497f9722a3daafe3b4186f6b6457e090600090a35050565b828054620000c7906200015f565b90600052602060002090601f016020900481019282620000eb576000855562000136565b82601f106200010657805160ff191683800117855562000136565b8280016001018555821562000136579182015b828111156200013657825182559160200191906001019062000119565b506200014492915062000148565b5090565b5b8082111562000144576000815560010162000149565b6002810460018216806200017457607f821691505b602082108114156200019657634e487b7160e01b600052602260045260246000fd5b50919050565b611ae180620001ac6000396000f3fe608060405234801561001057600080fd5b506004361061010a5760003560e01c8063715018a6116100a2578063cc0c523611610071578063cc0c52361461026d578063e985e9c51461028d578063f242432a146102c9578063f2fde38b146102dc578063f33f440c146102ef5761010a565b8063715018a6146102215780638da5cb5b146102295780639e6b26ba14610231578063a22cb4651461025a5761010a565b80634e1273f4116100de5780634e1273f41461018d5780634ebbc92a146101ad57806357f7789e146101cd5780636352211e146101e05761010a565b8062fdd58e1461010f57806301ffc9a7146101355780630e89341c146101585780632eb2c2d614610178575b600080fd5b61012261011d36600461151e565b610302565b6040519081526020015b60405180910390f35b610148610143366004611610565b610399565b604051901515815260200161012c565b61016b610166366004611648565b6103ed565b60405161012c9190611817565b61018b6101863660046113db565b61048f565b005b6101a061019b366004611547565b610526565b60405161012c91906117d6565b6101226101bb366004611648565b60009081526004602052604090205490565b61018b6101db366004611660565b610688565b6102096101ee366004611648565b6000908152600660205260409020546001600160a01b031690565b6040516001600160a01b03909116815260200161012c565b61018b61077a565b6102096107e5565b61020961023f366004611648565b6006602052600090815260409020546001600160a01b031681565b61018b6102683660046114e4565b6107f5565b61012261027b366004611648565b60046020526000908152604090205481565b61014861029b3660046113a9565b6001600160a01b03918216600090815260016020908152604080832093909416825291909152205460ff1690565b61018b6102d7366004611481565b610804565b61018b6102ea36600461138f565b61088b565b61018b6102fd366004611648565b61095b565b60006001600160a01b0383166103735760405162461bcd60e51b815260206004820152602b60248201527f455243313135353a2062616c616e636520717565727920666f7220746865207a60448201526a65726f206164647265737360a81b60648201526084015b60405180910390fd5b506000908152602081815260408083206001600160a01b03949094168352929052205490565b60006001600160e01b03198216636cdb3d1360e11b14806103ca57506001600160e01b031982166303a24d0760e21b145b806103e557506301ffc9a760e01b6001600160e01b03198316145b90505b919050565b600081815260056020526040902080546060919061040a9061193d565b80601f01602080910402602001604051908101604052809291908181526020018280546104369061193d565b80156104835780601f1061045857610100808354040283529160200191610483565b820191906000526020600020905b81548152906001019060200180831161046657829003601f168201915b50505050509050919050565b6001600160a01b0385163314806104ab57506104ab853361029b565b6105125760405162461bcd60e51b815260206004820152603260248201527f455243313135353a207472616e736665722063616c6c6572206973206e6f74206044820152711bdddb995c881b9bdc88185c1c1c9bdd995960721b606482015260840161036a565b61051f85858585856109f1565b5050505050565b6060815183511461058b5760405162461bcd60e51b815260206004820152602960248201527f455243313135353a206163636f756e747320616e6420696473206c656e677468604482015268040dad2e6dac2e8c6d60bb1b606482015260840161036a565b6000835167ffffffffffffffff8111156105b557634e487b7160e01b600052604160045260246000fd5b6040519080825280602002602001820160405280156105de578160200160208202803683370190505b50905060005b84518110156106805761064585828151811061061057634e487b7160e01b600052603260045260246000fd5b602002602001015185838151811061063857634e487b7160e01b600052603260045260246000fd5b6020026020010151610302565b82828151811061066557634e487b7160e01b600052603260045260246000fd5b6020908102919091010152610679816119a5565b90506105e4565b509392505050565b6000828152600660205260409020546001600160a01b031633146106da5760405162461bcd60e51b81526020600482015260096024820152682737ba1027bbb732b960b91b604482015260640161036a565b600082815260056020526040902080546106f39061193d565b1590506107565760405162461bcd60e51b815260206004820152602b60248201527f4f6e6c79207365742075726920312074696d6520706f737369626c6520666f7260448201526a1032b0b1b4103a37b5b2b760a91b606482015260840161036a565b60008281526005602090815260409091208251610775928401906111e9565b505050565b336107836107e5565b6001600160a01b0316146107d95760405162461bcd60e51b815260206004820181905260248201527f4f776e61626c653a2063616c6c6572206973206e6f7420746865206f776e6572604482015260640161036a565b6107e36000610bea565b565b6003546001600160a01b03165b90565b610800338383610c3c565b5050565b6001600160a01b0385163314806108205750610820853361029b565b61087e5760405162461bcd60e51b815260206004820152602960248201527f455243313135353a2063616c6c6572206973206e6f74206f776e6572206e6f7260448201526808185c1c1c9bdd995960ba1b606482015260840161036a565b61051f8585858585610d1d565b336108946107e5565b6001600160a01b0316146108ea5760405162461bcd60e51b815260206004820181905260248201527f4f776e61626c653a2063616c6c6572206973206e6f7420746865206f776e6572604482015260640161036a565b6001600160a01b03811661094f5760405162461bcd60e51b815260206004820152602660248201527f4f776e61626c653a206e6577206f776e657220697320746865207a65726f206160448201526564647265737360d01b606482015260840161036a565b61095881610bea565b50565b600081815260046020526040902054156109a75760405162461bcd60e51b815260206004820152600d60248201526c105b1c9958591e48115e1a5cdd609a1b604482015260640161036a565b6109c33382600160405180602001604052806000815250610e47565b6000908152600460209081526040808320600190556006909152902080546001600160a01b03191633179055565b8151835114610a535760405162461bcd60e51b815260206004820152602860248201527f455243313135353a2069647320616e6420616d6f756e7473206c656e677468206044820152670dad2e6dac2e8c6d60c31b606482015260840161036a565b6001600160a01b038416610a795760405162461bcd60e51b815260040161036a90611872565b3360005b8451811015610b7c576000858281518110610aa857634e487b7160e01b600052603260045260246000fd5b602002602001015190506000858381518110610ad457634e487b7160e01b600052603260045260246000fd5b602090810291909101810151600084815280835260408082206001600160a01b038e168352909352919091205490915081811015610b245760405162461bcd60e51b815260040161036a906118b7565b6000838152602081815260408083206001600160a01b038e8116855292528083208585039055908b16825281208054849290610b61908490611925565b9250508190555050505080610b75906119a5565b9050610a7d565b50846001600160a01b0316866001600160a01b0316826001600160a01b03167f4a39dc06d4c0dbc64b70af90fd698a233a518aa5d07e595d983b8c0526c8f7fb8787604051610bcc9291906117e9565b60405180910390a4610be2818787878787610f5b565b505050505050565b600380546001600160a01b038381166001600160a01b0319831681179093556040519116919082907f8be0079c531659141344cd1fd0a4f28419497f9722a3daafe3b4186f6b6457e090600090a35050565b816001600160a01b0316836001600160a01b03161415610cb05760405162461bcd60e51b815260206004820152602960248201527f455243313135353a2073657474696e6720617070726f76616c20737461747573604482015268103337b91039b2b63360b91b606482015260840161036a565b6001600160a01b03838116600081815260016020908152604080832094871680845294825291829020805460ff191686151590811790915591519182527f17307eab39ab6107e8899845ad3d59bd9653f200f220920489ca2b5937696c31910160405180910390a3505050565b6001600160a01b038416610d435760405162461bcd60e51b815260040161036a90611872565b336000610d4f856110c6565b90506000610d5c856110c6565b90506000868152602081815260408083206001600160a01b038c16845290915290205485811015610d9f5760405162461bcd60e51b815260040161036a906118b7565b6000878152602081815260408083206001600160a01b038d8116855292528083208985039055908a16825281208054889290610ddc908490611925565b909155505060408051888152602081018890526001600160a01b03808b16928c821692918816917fc3d58168c5ae7397731d063d5bbf3d657854427343f4c083240f7aacaa2d0f62910160405180910390a4610e3c848a8a8a8a8a61111f565b505050505050505050565b6001600160a01b038416610ea75760405162461bcd60e51b815260206004820152602160248201527f455243313135353a206d696e7420746f20746865207a65726f206164647265736044820152607360f81b606482015260840161036a565b336000610eb3856110c6565b90506000610ec0856110c6565b90506000868152602081815260408083206001600160a01b038b16845290915281208054879290610ef2908490611925565b909155505060408051878152602081018790526001600160a01b03808a1692600092918716917fc3d58168c5ae7397731d063d5bbf3d657854427343f4c083240f7aacaa2d0f62910160405180910390a4610f528360008989898961111f565b50505050505050565b6001600160a01b0384163b15610be25760405163bc197c8160e01b81526001600160a01b0385169063bc197c8190610f9f9089908990889088908890600401611733565b602060405180830381600087803b158015610fb957600080fd5b505af1925050508015610fe9575060408051601f3d908101601f19168201909252610fe69181019061162c565b60015b61109657610ff56119ec565b806308c379a0141561102f575061100a611a03565b806110155750611031565b8060405162461bcd60e51b815260040161036a9190611817565b505b60405162461bcd60e51b815260206004820152603460248201527f455243313135353a207472616e7366657220746f206e6f6e20455243313135356044820152732932b1b2b4bb32b91034b6b83632b6b2b73a32b960611b606482015260840161036a565b6001600160e01b0319811663bc197c8160e01b14610f525760405162461bcd60e51b815260040161036a9061182a565b6040805160018082528183019092526060916000919060208083019080368337019050509050828160008151811061110e57634e487b7160e01b600052603260045260246000fd5b602090810291909101015292915050565b6001600160a01b0384163b15610be25760405163f23a6e6160e01b81526001600160a01b0385169063f23a6e61906111639089908990889088908890600401611791565b602060405180830381600087803b15801561117d57600080fd5b505af19250505080156111ad575060408051601f3d908101601f191682019092526111aa9181019061162c565b60015b6111b957610ff56119ec565b6001600160e01b0319811663f23a6e6160e01b14610f525760405162461bcd60e51b815260040161036a9061182a565b8280546111f59061193d565b90600052602060002090601f016020900481019282611217576000855561125d565b82601f1061123057805160ff191683800117855561125d565b8280016001018555821561125d579182015b8281111561125d578251825591602001919060010190611242565b5061126992915061126d565b5090565b5b80821115611269576000815560010161126e565b600067ffffffffffffffff83111561129c5761129c6119d6565b6040516112b3601f8501601f191660200182611978565b8091508381528484840111156112c857600080fd5b83836020830137600060208583010152509392505050565b80356001600160a01b03811681146103e857600080fd5b600082601f830112611307578081fd5b8135602061131482611901565b6040516113218282611978565b83815282810191508583018385028701840188101561133e578586fd5b855b8581101561135c57813584529284019290840190600101611340565b5090979650505050505050565b600082601f830112611379578081fd5b61138883833560208501611282565b9392505050565b6000602082840312156113a0578081fd5b611388826112e0565b600080604083850312156113bb578081fd5b6113c4836112e0565b91506113d2602084016112e0565b90509250929050565b600080600080600060a086880312156113f2578081fd5b6113fb866112e0565b9450611409602087016112e0565b9350604086013567ffffffffffffffff80821115611425578283fd5b61143189838a016112f7565b94506060880135915080821115611446578283fd5b61145289838a016112f7565b93506080880135915080821115611467578283fd5b5061147488828901611369565b9150509295509295909350565b600080600080600060a08688031215611498578081fd5b6114a1866112e0565b94506114af602087016112e0565b93506040860135925060608601359150608086013567ffffffffffffffff8111156114d8578182fd5b61147488828901611369565b600080604083850312156114f6578182fd5b6114ff836112e0565b915060208301358015158114611513578182fd5b809150509250929050565b60008060408385031215611530578182fd5b611539836112e0565b946020939093013593505050565b60008060408385031215611559578182fd5b823567ffffffffffffffff80821115611570578384fd5b818501915085601f830112611583578384fd5b8135602061159082611901565b60405161159d8282611978565b8381528281019150858301838502870184018b10156115ba578889fd5b8896505b848710156115e3576115cf816112e0565b8352600196909601959183019183016115be565b50965050860135925050808211156115f9578283fd5b50611606858286016112f7565b9150509250929050565b600060208284031215611621578081fd5b813561138881611a95565b60006020828403121561163d578081fd5b815161138881611a95565b600060208284031215611659578081fd5b5035919050565b60008060408385031215611672578182fd5b82359150602083013567ffffffffffffffff81111561168f578182fd5b8301601f8101851361169f578182fd5b61160685823560208401611282565b6000815180845260208085019450808401835b838110156116dd578151875295820195908201906001016116c1565b509495945050505050565b60008151808452815b8181101561170d576020818501810151868301820152016116f1565b8181111561171e5782602083870101525b50601f01601f19169290920160200192915050565b6001600160a01b0386811682528516602082015260a06040820181905260009061175f908301866116ae565b828103606084015261177181866116ae565b9050828103608084015261178581856116e8565b98975050505050505050565b6001600160a01b03868116825285166020820152604081018490526060810183905260a0608082018190526000906117cb908301846116e8565b979650505050505050565b60006020825261138860208301846116ae565b6000604082526117fc60408301856116ae565b828103602084015261180e81856116ae565b95945050505050565b60006020825261138860208301846116e8565b60208082526028908201527f455243313135353a204552433131353552656365697665722072656a656374656040820152676420746f6b656e7360c01b606082015260800190565b60208082526025908201527f455243313135353a207472616e7366657220746f20746865207a65726f206164604082015264647265737360d81b606082015260800190565b6020808252602a908201527f455243313135353a20696e73756666696369656e742062616c616e636520666f60408201526939103a3930b739b332b960b11b606082015260800190565b600067ffffffffffffffff82111561191b5761191b6119d6565b5060209081020190565b60008219821115611938576119386119c0565b500190565b60028104600182168061195157607f821691505b6020821081141561197257634e487b7160e01b600052602260045260246000fd5b50919050565b601f8201601f1916810167ffffffffffffffff8111828210171561199e5761199e6119d6565b6040525050565b60006000198214156119b9576119b96119c0565b5060010190565b634e487b7160e01b600052601160045260246000fd5b634e487b7160e01b600052604160045260246000fd5b600060033d11156107f257600481823e5160e01c90565b600060443d1015611a13576107f2565b6040516003193d81016004833e81513d67ffffffffffffffff8160248401118184111715611a455750505050506107f2565b8285019150815181811115611a5f575050505050506107f2565b843d8701016020828501011115611a7b575050505050506107f2565b611a8a60208286010187611978565b509094505050505090565b6001600160e01b03198116811461095857600080fdfea264697066735822122067f28b1391e5b37ae710f02d7d5748db32c919ca4549a6765b31baa2edcbb11b64736f6c63430008020033",
  "linkReferences": {},
  "deployedLinkReferences": {}
}