{
  "_format": "hh-sol-artifact-1",
  "contractName": "MintShaderToken",
  "sourceName": "contracts/MintShaderToken.sol",
  "abi": [
    {
      "inputs": [],
      "stateMutability": "nonpayable",
      "type": "constructor"
    },
    {
      "anonymous": false,
      "inputs": [
        {
          "indexed": true,
          "internalType": "address",
          "name": "account",
          "type": "address"
        },
        {
          "indexed": true,
          "internalType": "address",
          "name": "operator",
          "type": "address"
        },
        {
          "indexed": false,
          "internalType": "bool",
          "name": "approved",
          "type": "bool"
        }
      ],
      "name": "ApprovalForAll",
      "type": "event"
    },
    {
      "anonymous": false,
      "inputs": [
        {
          "indexed": true,
          "internalType": "address",
          "name": "previousOwner",
          "type": "address"
        },
        {
          "indexed": true,
          "internalType": "address",
          "name": "newOwner",
          "type": "address"
        }
      ],
      "name": "OwnershipTransferred",
      "type": "event"
    },
    {
      "anonymous": false,
      "inputs": [
        {
          "indexed": true,
          "internalType": "address",
          "name": "operator",
          "type": "address"
        },
        {
          "indexed": true,
          "internalType": "address",
          "name": "from",
          "type": "address"
        },
        {
          "indexed": true,
          "internalType": "address",
          "name": "to",
          "type": "address"
        },
        {
          "indexed": false,
          "internalType": "uint256[]",
          "name": "ids",
          "type": "uint256[]"
        },
        {
          "indexed": false,
          "internalType": "uint256[]",
          "name": "values",
          "type": "uint256[]"
        }
      ],
      "name": "TransferBatch",
      "type": "event"
    },
    {
      "anonymous": false,
      "inputs": [
        {
          "indexed": true,
          "internalType": "address",
          "name": "operator",
          "type": "address"
        },
        {
          "indexed": true,
          "internalType": "address",
          "name": "from",
          "type": "address"
        },
        {
          "indexed": true,
          "internalType": "address",
          "name": "to",
          "type": "address"
        },
        {
          "indexed": false,
          "internalType": "uint256",
          "name": "id",
          "type": "uint256"
        },
        {
          "indexed": false,
          "internalType": "uint256",
          "name": "value",
          "type": "uint256"
        }
      ],
      "name": "TransferSingle",
      "type": "event"
    },
    {
      "anonymous": false,
      "inputs": [
        {
          "indexed": false,
          "internalType": "string",
          "name": "value",
          "type": "string"
        },
        {
          "indexed": true,
          "internalType": "uint256",
          "name": "id",
          "type": "uint256"
        }
      ],
      "name": "URI",
      "type": "event"
    },
    {
      "inputs": [
        {
          "internalType": "address",
          "name": "account",
          "type": "address"
        },
        {
          "internalType": "uint256",
          "name": "id",
          "type": "uint256"
        }
      ],
      "name": "balanceOf",
      "outputs": [
        {
          "internalType": "uint256",
          "name": "",
          "type": "uint256"
        }
      ],
      "stateMutability": "view",
      "type": "function"
    },
    {
      "inputs": [
        {
          "internalType": "address[]",
          "name": "accounts",
          "type": "address[]"
        },
        {
          "internalType": "uint256[]",
          "name": "ids",
          "type": "uint256[]"
        }
      ],
      "name": "balanceOfBatch",
      "outputs": [
        {
          "internalType": "uint256[]",
          "name": "",
          "type": "uint256[]"
        }
      ],
      "stateMutability": "view",
      "type": "function"
    },
    {
      "inputs": [
        {
          "internalType": "uint256",
          "name": "_tokenId",
          "type": "uint256"
        }
      ],
      "name": "exist",
      "outputs": [
        {
          "internalType": "uint256",
          "name": "",
          "type": "uint256"
        }
      ],
      "stateMutability": "view",
      "type": "function"
    },
    {
      "inputs": [
        {
          "internalType": "address",
          "name": "account",
          "type": "address"
        },
        {
          "internalType": "address",
          "name": "operator",
          "type": "address"
        }
      ],
      "name": "isApprovedForAll",
      "outputs": [
        {
          "internalType": "bool",
          "name": "",
          "type": "bool"
        }
      ],
      "stateMutability": "view",
      "type": "function"
    },
    {
      "inputs": [
        {
          "internalType": "uint256",
          "name": "_tokenId",
          "type": "uint256"
        }
      ],
      "name": "mintShaderToken",
      "outputs": [],
      "stateMutability": "nonpayable",
      "type": "function"
    },
    {
      "inputs": [
        {
          "internalType": "uint256",
          "name": "_tokenId",
          "type": "uint256"
        }
      ],
      "name": "modifyOwner",
      "outputs": [],
      "stateMutability": "nonpayable",
      "type": "function"
    },
    {
      "inputs": [],
      "name": "owner",
      "outputs": [
        {
          "internalType": "address",
          "name": "",
          "type": "address"
        }
      ],
      "stateMutability": "view",
      "type": "function"
    },
    {
      "inputs": [
        {
          "internalType": "uint256",
          "name": "_tokenId",
          "type": "uint256"
        }
      ],
      "name": "ownerOf",
      "outputs": [
        {
          "internalType": "address",
          "name": "",
          "type": "address"
        }
      ],
      "stateMutability": "view",
      "type": "function"
    },
    {
      "inputs": [],
      "name": "renounceOwnership",
      "outputs": [],
      "stateMutability": "nonpayable",
      "type": "function"
    },
    {
      "inputs": [
        {
          "internalType": "address",
          "name": "from",
          "type": "address"
        },
        {
          "internalType": "address",
          "name": "to",
          "type": "address"
        },
        {
          "internalType": "uint256[]",
          "name": "ids",
          "type": "uint256[]"
        },
        {
          "internalType": "uint256[]",
          "name": "amounts",
          "type": "uint256[]"
        },
        {
          "internalType": "bytes",
          "name": "data",
          "type": "bytes"
        }
      ],
      "name": "safeBatchTransferFrom",
      "outputs": [],
      "stateMutability": "nonpayable",
      "type": "function"
    },
    {
      "inputs": [
        {
          "internalType": "address",
          "name": "from",
          "type": "address"
        },
        {
          "internalType": "address",
          "name": "to",
          "type": "address"
        },
        {
          "internalType": "uint256",
          "name": "id",
          "type": "uint256"
        },
        {
          "internalType": "uint256",
          "name": "amount",
          "type": "uint256"
        },
        {
          "internalType": "bytes",
          "name": "data",
          "type": "bytes"
        }
      ],
      "name": "safeTransferFrom",
      "outputs": [],
      "stateMutability": "nonpayable",
      "type": "function"
    },
    {
      "inputs": [
        {
          "internalType": "address",
          "name": "operator",
          "type": "address"
        },
        {
          "internalType": "bool",
          "name": "approved",
          "type": "bool"
        }
      ],
      "name": "setApprovalForAll",
      "outputs": [],
      "stateMutability": "nonpayable",
      "type": "function"
    },
    {
      "inputs": [
        {
          "internalType": "uint256",
          "name": "_tokenId",
          "type": "uint256"
        },
        {
          "internalType": "string",
          "name": "uri",
          "type": "string"
        }
      ],
      "name": "setTokenUri",
      "outputs": [],
      "stateMutability": "nonpayable",
      "type": "function"
    },
    {
      "inputs": [
        {
          "internalType": "bytes4",
          "name": "interfaceId",
          "type": "bytes4"
        }
      ],
      "name": "supportsInterface",
      "outputs": [
        {
          "internalType": "bool",
          "name": "",
          "type": "bool"
        }
      ],
      "stateMutability": "view",
      "type": "function"
    },
    {
      "inputs": [
        {
          "internalType": "uint256",
          "name": "",
          "type": "uint256"
        }
      ],
      "name": "tokenAddress",
      "outputs": [
        {
          "internalType": "address",
          "name": "",
          "type": "address"
        }
      ],
      "stateMutability": "view",
      "type": "function"
    },
    {
      "inputs": [
        {
          "internalType": "uint256",
          "name": "",
          "type": "uint256"
        }
      ],
      "name": "tokenExist",
      "outputs": [
        {
          "internalType": "uint256",
          "name": "",
          "type": "uint256"
        }
      ],
      "stateMutability": "view",
      "type": "function"
    },
    {
      "inputs": [
        {
          "internalType": "address",
          "name": "newOwner",
          "type": "address"
        }
      ],
      "name": "transferOwnership",
      "outputs": [],
      "stateMutability": "nonpayable",
      "type": "function"
    },
    {
      "inputs": [
        {
          "internalType": "uint256",
          "name": "_tokenId",
          "type": "uint256"
        }
      ],
      "name": "uri",
      "outputs": [
        {
          "internalType": "string",
          "name": "",
          "type": "string"
        }
      ],
      "stateMutability": "view",
      "type": "function"
    }
  ],
  "bytecode": "0x60806040523480156200001157600080fd5b506040805180820190915260088152676d6574615552492f60c01b60208201526200003c816200004e565b50620000483362000067565b6200019c565b805162000063906002906020840190620000b9565b5050565b600380546001600160a01b038381166001600160a01b0319831681179093556040519116919082907f8be0079c531659141344cd1fd0a4f28419497f9722a3daafe3b4186f6b6457e090600090a35050565b828054620000c7906200015f565b90600052602060002090601f016020900481019282620000eb576000855562000136565b82601f106200010657805160ff191683800117855562000136565b8280016001018555821562000136579182015b828111156200013657825182559160200191906001019062000119565b506200014492915062000148565b5090565b5b8082111562000144576000815560010162000149565b6002810460018216806200017457607f821691505b602082108114156200019657634e487b7160e01b600052602260045260246000fd5b50919050565b611b1a80620001ac6000396000f3fe608060405234801561001057600080fd5b50600436106101155760003560e01c8063715018a6116100a2578063cc0c523611610071578063cc0c5236146102a6578063e985e9c5146102c6578063f242432a14610302578063f2fde38b14610315578063f33f440c1461032857610115565b8063715018a61461025a5780638da5cb5b146102625780639e6b26ba1461026a578063a22cb4651461029357610115565b80632eb2c2d6116100e95780632eb2c2d6146101b35780634e1273f4146101c65780634ebbc92a146101e657806357f7789e146102065780636352211e1461021957610115565b8062fdd58e1461011a57806301ffc9a7146101405780630e89341c1461016357806326c3326914610183575b600080fd5b61012d610128366004611557565b61033b565b6040519081526020015b60405180910390f35b61015361014e366004611649565b6103d2565b6040519015158152602001610137565b610176610171366004611681565b610426565b6040516101379190611850565b6101b1610191366004611681565b600090815260066020526040902080546001600160a01b03191633179055565b005b6101b16101c1366004611414565b6104c8565b6101d96101d4366004611580565b61055f565b604051610137919061180f565b61012d6101f4366004611681565b60009081526004602052604090205490565b6101b1610214366004611699565b6106c1565b610242610227366004611681565b6000908152600660205260409020546001600160a01b031690565b6040516001600160a01b039091168152602001610137565b6101b16107b3565b61024261081e565b610242610278366004611681565b6006602052600090815260409020546001600160a01b031681565b6101b16102a136600461151d565b61082e565b61012d6102b4366004611681565b60046020526000908152604090205481565b6101536102d43660046113e2565b6001600160a01b03918216600090815260016020908152604080832093909416825291909152205460ff1690565b6101b16103103660046114ba565b61083d565b6101b16103233660046113c8565b6108c4565b6101b1610336366004611681565b610994565b60006001600160a01b0383166103ac5760405162461bcd60e51b815260206004820152602b60248201527f455243313135353a2062616c616e636520717565727920666f7220746865207a60448201526a65726f206164647265737360a81b60648201526084015b60405180910390fd5b506000908152602081815260408083206001600160a01b03949094168352929052205490565b60006001600160e01b03198216636cdb3d1360e11b148061040357506001600160e01b031982166303a24d0760e21b145b8061041e57506301ffc9a760e01b6001600160e01b03198316145b90505b919050565b600081815260056020526040902080546060919061044390611976565b80601f016020809104026020016040519081016040528092919081815260200182805461046f90611976565b80156104bc5780601f10610491576101008083540402835291602001916104bc565b820191906000526020600020905b81548152906001019060200180831161049f57829003601f168201915b50505050509050919050565b6001600160a01b0385163314806104e457506104e485336102d4565b61054b5760405162461bcd60e51b815260206004820152603260248201527f455243313135353a207472616e736665722063616c6c6572206973206e6f74206044820152711bdddb995c881b9bdc88185c1c1c9bdd995960721b60648201526084016103a3565b6105588585858585610a2a565b5050505050565b606081518351146105c45760405162461bcd60e51b815260206004820152602960248201527f455243313135353a206163636f756e747320616e6420696473206c656e677468604482015268040dad2e6dac2e8c6d60bb1b60648201526084016103a3565b6000835167ffffffffffffffff8111156105ee57634e487b7160e01b600052604160045260246000fd5b604051908082528060200260200182016040528015610617578160200160208202803683370190505b50905060005b84518110156106b95761067e85828151811061064957634e487b7160e01b600052603260045260246000fd5b602002602001015185838151811061067157634e487b7160e01b600052603260045260246000fd5b602002602001015161033b565b82828151811061069e57634e487b7160e01b600052603260045260246000fd5b60209081029190910101526106b2816119de565b905061061d565b509392505050565b6000828152600660205260409020546001600160a01b031633146107135760405162461bcd60e51b81526020600482015260096024820152682737ba1027bbb732b960b91b60448201526064016103a3565b6000828152600560205260409020805461072c90611976565b15905061078f5760405162461bcd60e51b815260206004820152602b60248201527f4f6e6c79207365742075726920312074696d6520706f737369626c6520666f7260448201526a1032b0b1b4103a37b5b2b760a91b60648201526084016103a3565b600082815260056020908152604090912082516107ae92840190611222565b505050565b336107bc61081e565b6001600160a01b0316146108125760405162461bcd60e51b815260206004820181905260248201527f4f776e61626c653a2063616c6c6572206973206e6f7420746865206f776e657260448201526064016103a3565b61081c6000610c23565b565b6003546001600160a01b03165b90565b610839338383610c75565b5050565b6001600160a01b038516331480610859575061085985336102d4565b6108b75760405162461bcd60e51b815260206004820152602960248201527f455243313135353a2063616c6c6572206973206e6f74206f776e6572206e6f7260448201526808185c1c1c9bdd995960ba1b60648201526084016103a3565b6105588585858585610d56565b336108cd61081e565b6001600160a01b0316146109235760405162461bcd60e51b815260206004820181905260248201527f4f776e61626c653a2063616c6c6572206973206e6f7420746865206f776e657260448201526064016103a3565b6001600160a01b0381166109885760405162461bcd60e51b815260206004820152602660248201527f4f776e61626c653a206e6577206f776e657220697320746865207a65726f206160448201526564647265737360d01b60648201526084016103a3565b61099181610c23565b50565b600081815260046020526040902054156109e05760405162461bcd60e51b815260206004820152600d60248201526c105b1c9958591e48115e1a5cdd609a1b60448201526064016103a3565b6109fc3382600160405180602001604052806000815250610e80565b6000908152600460209081526040808320600190556006909152902080546001600160a01b03191633179055565b8151835114610a8c5760405162461bcd60e51b815260206004820152602860248201527f455243313135353a2069647320616e6420616d6f756e7473206c656e677468206044820152670dad2e6dac2e8c6d60c31b60648201526084016103a3565b6001600160a01b038416610ab25760405162461bcd60e51b81526004016103a3906118ab565b3360005b8451811015610bb5576000858281518110610ae157634e487b7160e01b600052603260045260246000fd5b602002602001015190506000858381518110610b0d57634e487b7160e01b600052603260045260246000fd5b602090810291909101810151600084815280835260408082206001600160a01b038e168352909352919091205490915081811015610b5d5760405162461bcd60e51b81526004016103a3906118f0565b6000838152602081815260408083206001600160a01b038e8116855292528083208585039055908b16825281208054849290610b9a90849061195e565b9250508190555050505080610bae906119de565b9050610ab6565b50846001600160a01b0316866001600160a01b0316826001600160a01b03167f4a39dc06d4c0dbc64b70af90fd698a233a518aa5d07e595d983b8c0526c8f7fb8787604051610c05929190611822565b60405180910390a4610c1b818787878787610f94565b505050505050565b600380546001600160a01b038381166001600160a01b0319831681179093556040519116919082907f8be0079c531659141344cd1fd0a4f28419497f9722a3daafe3b4186f6b6457e090600090a35050565b816001600160a01b0316836001600160a01b03161415610ce95760405162461bcd60e51b815260206004820152602960248201527f455243313135353a2073657474696e6720617070726f76616c20737461747573604482015268103337b91039b2b63360b91b60648201526084016103a3565b6001600160a01b03838116600081815260016020908152604080832094871680845294825291829020805460ff191686151590811790915591519182527f17307eab39ab6107e8899845ad3d59bd9653f200f220920489ca2b5937696c31910160405180910390a3505050565b6001600160a01b038416610d7c5760405162461bcd60e51b81526004016103a3906118ab565b336000610d88856110ff565b90506000610d95856110ff565b90506000868152602081815260408083206001600160a01b038c16845290915290205485811015610dd85760405162461bcd60e51b81526004016103a3906118f0565b6000878152602081815260408083206001600160a01b038d8116855292528083208985039055908a16825281208054889290610e1590849061195e565b909155505060408051888152602081018890526001600160a01b03808b16928c821692918816917fc3d58168c5ae7397731d063d5bbf3d657854427343f4c083240f7aacaa2d0f62910160405180910390a4610e75848a8a8a8a8a611158565b505050505050505050565b6001600160a01b038416610ee05760405162461bcd60e51b815260206004820152602160248201527f455243313135353a206d696e7420746f20746865207a65726f206164647265736044820152607360f81b60648201526084016103a3565b336000610eec856110ff565b90506000610ef9856110ff565b90506000868152602081815260408083206001600160a01b038b16845290915281208054879290610f2b90849061195e565b909155505060408051878152602081018790526001600160a01b03808a1692600092918716917fc3d58168c5ae7397731d063d5bbf3d657854427343f4c083240f7aacaa2d0f62910160405180910390a4610f8b83600089898989611158565b50505050505050565b6001600160a01b0384163b15610c1b5760405163bc197c8160e01b81526001600160a01b0385169063bc197c8190610fd8908990899088908890889060040161176c565b602060405180830381600087803b158015610ff257600080fd5b505af1925050508015611022575060408051601f3d908101601f1916820190925261101f91810190611665565b60015b6110cf5761102e611a25565b806308c379a014156110685750611043611a3c565b8061104e575061106a565b8060405162461bcd60e51b81526004016103a39190611850565b505b60405162461bcd60e51b815260206004820152603460248201527f455243313135353a207472616e7366657220746f206e6f6e20455243313135356044820152732932b1b2b4bb32b91034b6b83632b6b2b73a32b960611b60648201526084016103a3565b6001600160e01b0319811663bc197c8160e01b14610f8b5760405162461bcd60e51b81526004016103a390611863565b6040805160018082528183019092526060916000919060208083019080368337019050509050828160008151811061114757634e487b7160e01b600052603260045260246000fd5b602090810291909101015292915050565b6001600160a01b0384163b15610c1b5760405163f23a6e6160e01b81526001600160a01b0385169063f23a6e619061119c90899089908890889088906004016117ca565b602060405180830381600087803b1580156111b657600080fd5b505af19250505080156111e6575060408051601f3d908101601f191682019092526111e391810190611665565b60015b6111f25761102e611a25565b6001600160e01b0319811663f23a6e6160e01b14610f8b5760405162461bcd60e51b81526004016103a390611863565b82805461122e90611976565b90600052602060002090601f0160209004810192826112505760008555611296565b82601f1061126957805160ff1916838001178555611296565b82800160010185558215611296579182015b8281111561129657825182559160200191906001019061127b565b506112a29291506112a6565b5090565b5b808211156112a257600081556001016112a7565b600067ffffffffffffffff8311156112d5576112d5611a0f565b6040516112ec601f8501601f1916602001826119b1565b80915083815284848401111561130157600080fd5b83836020830137600060208583010152509392505050565b80356001600160a01b038116811461042157600080fd5b600082601f830112611340578081fd5b8135602061134d8261193a565b60405161135a82826119b1565b838152828101915085830183850287018401881015611377578586fd5b855b8581101561139557813584529284019290840190600101611379565b5090979650505050505050565b600082601f8301126113b2578081fd5b6113c1838335602085016112bb565b9392505050565b6000602082840312156113d9578081fd5b6113c182611319565b600080604083850312156113f4578081fd5b6113fd83611319565b915061140b60208401611319565b90509250929050565b600080600080600060a0868803121561142b578081fd5b61143486611319565b945061144260208701611319565b9350604086013567ffffffffffffffff8082111561145e578283fd5b61146a89838a01611330565b9450606088013591508082111561147f578283fd5b61148b89838a01611330565b935060808801359150808211156114a0578283fd5b506114ad888289016113a2565b9150509295509295909350565b600080600080600060a086880312156114d1578081fd5b6114da86611319565b94506114e860208701611319565b93506040860135925060608601359150608086013567ffffffffffffffff811115611511578182fd5b6114ad888289016113a2565b6000806040838503121561152f578182fd5b61153883611319565b91506020830135801515811461154c578182fd5b809150509250929050565b60008060408385031215611569578182fd5b61157283611319565b946020939093013593505050565b60008060408385031215611592578182fd5b823567ffffffffffffffff808211156115a9578384fd5b818501915085601f8301126115bc578384fd5b813560206115c98261193a565b6040516115d682826119b1565b8381528281019150858301838502870184018b10156115f3578889fd5b8896505b8487101561161c5761160881611319565b8352600196909601959183019183016115f7565b5096505086013592505080821115611632578283fd5b5061163f85828601611330565b9150509250929050565b60006020828403121561165a578081fd5b81356113c181611ace565b600060208284031215611676578081fd5b81516113c181611ace565b600060208284031215611692578081fd5b5035919050565b600080604083850312156116ab578182fd5b82359150602083013567ffffffffffffffff8111156116c8578182fd5b8301601f810185136116d8578182fd5b61163f858235602084016112bb565b6000815180845260208085019450808401835b83811015611716578151875295820195908201906001016116fa565b509495945050505050565b60008151808452815b818110156117465760208185018101518683018201520161172a565b818111156117575782602083870101525b50601f01601f19169290920160200192915050565b6001600160a01b0386811682528516602082015260a060408201819052600090611798908301866116e7565b82810360608401526117aa81866116e7565b905082810360808401526117be8185611721565b98975050505050505050565b6001600160a01b03868116825285166020820152604081018490526060810183905260a06080820181905260009061180490830184611721565b979650505050505050565b6000602082526113c160208301846116e7565b60006040825261183560408301856116e7565b828103602084015261184781856116e7565b95945050505050565b6000602082526113c16020830184611721565b60208082526028908201527f455243313135353a204552433131353552656365697665722072656a656374656040820152676420746f6b656e7360c01b606082015260800190565b60208082526025908201527f455243313135353a207472616e7366657220746f20746865207a65726f206164604082015264647265737360d81b606082015260800190565b6020808252602a908201527f455243313135353a20696e73756666696369656e742062616c616e636520666f60408201526939103a3930b739b332b960b11b606082015260800190565b600067ffffffffffffffff82111561195457611954611a0f565b5060209081020190565b60008219821115611971576119716119f9565b500190565b60028104600182168061198a57607f821691505b602082108114156119ab57634e487b7160e01b600052602260045260246000fd5b50919050565b601f8201601f1916810167ffffffffffffffff811182821017156119d7576119d7611a0f565b6040525050565b60006000198214156119f2576119f26119f9565b5060010190565b634e487b7160e01b600052601160045260246000fd5b634e487b7160e01b600052604160045260246000fd5b600060033d111561082b57600481823e5160e01c90565b600060443d1015611a4c5761082b565b6040516003193d81016004833e81513d67ffffffffffffffff8160248401118184111715611a7e57505050505061082b565b8285019150815181811115611a985750505050505061082b565b843d8701016020828501011115611ab45750505050505061082b565b611ac3602082860101876119b1565b509094505050505090565b6001600160e01b03198116811461099157600080fdfea2646970667358221220c4bb60bc6d58adf9bb9cdaf4bbe8ef51c83c306a2a36b2d08d486270c90edc0064736f6c63430008020033",
  "linkReferences": {},
  "deployedLinkReferences": {}
}